:020000040800F2
:1000000000000120C50C0008390C00083F0C000856
:10001000450C00084B0C0008510C000800000000C3
:10002000000000000000000000000000570C000865
:10003000650C000800000000730C0008810C00082B
:10004000150D0008150D0008150D0008150D000808
:10005000150D0008150D0008150D0008150D0008F8
:10006000150D0008150D0008150D0008150D0008E8
:10007000150D0008150D0008150D0008150D0008D8
:10008000150D0008150D0008150D0008150D0008C8
:100090008D0C0008150D0008150D0008150D000841
:1000A000150D0008150D0008150D0008150D0008A8
:1000B000150D00080000000000000000150D0008EC
:1000C000150D00080000000000000000150D0008DC
:1000D00000000000150D0008150D000800000000CC
:1000E000150D0008150D00080000000000000000BC
:1000F0000000000000000000000000000000000000
:10010000000000000000000000000000150D0008C5
:100110000000000000000000150D0008150D00088B
:10012000150D0008150D0008150D0008150D000827
:10013000150D000800000000000000000000000095
:10014000150D0008150D0008150D0008150D000807
:10015000150D0008150D0008150D0008150D0008F7
:10016000150D0008150D0008150D00080000000011
:10017000150D0008150D000800000000000000002B
:0C018000150D0008150D0008150D0008F5
:10018C0010B5054C237833B9044B13B10448AFF3C5
:10019C0000800123237010BD0C0000200000000023
:1001AC00183C000808B5034B1BB103490348AFF3D7
:1001BC00008008BD0000000010000020183C000862
:1001CC0053B94AB9002908BF00281CBF4FF0FF31B2
:1001DC004FF0FF3000F074B9ADF1080C6DE904CEAE
:1001EC0000F006F8DDF804E0DDE9022304B0704706
:1001FC002DE9F047089D04468E46002B4DD18A42CE
:10020C00944669D9B2FA82F252B101FA02F3C2F100
:10021C00200120FA01F10CFA02FC41EA030E944091
:10022C004FEA1C48210CBEFBF8F61FFA8CF708FBB2
:10023C0016E341EA034306FB07F199420AD91CEB8A
:10024C00030306F1FF3080F01F81994240F21C81BC
:10025C00023E63445B1AA4B2B3FBF8F008FB103304
:10026C0044EA034400FB07F7A7420AD91CEB040439
:10027C0000F1FF3380F00A81A74240F20781644409
:10028C00023840EA0640E41B00261DB1D44000238E
:10029C00C5E900433146BDE8F0878B4209D9002DF2
:1002AC0000F0EF800026C5E9000130463146BDE87C
:1002BC00F087B3FA83F6002E4AD18B4202D38242E6
:1002CC0000F2F980841A61EB030301209E46002D95
:1002DC00E0D0C5E9004EDDE702B9FFDEB2FA82F2EA
:1002EC00002A40F09280A1EB0C014FEA1C471FFA48
:1002FC008CFE0126200CB1FBF7F307FB131140EA2F
:10030C0001410EFB03F0884208D91CEB010103F1FB
:10031C00FF3802D2884200F2CB804346091AA4B2BD
:10032C00B1FBF7F007FB101144EA01440EFB00FE91
:10033C00A64508D91CEB040400F1FF3102D2A645F6
:10034C0000F2BB800846A4EB0E0440EA03409CE795
:10035C00C6F12007B34022FA07FC4CEA030C20FA42
:10036C0007F401FA06F31C43F9404FEA1C4900FA62
:10037C0006F3B1FBF9F8200C1FFA8CFE09FB1811DF
:10038C0040EA014108FB0EF0884202FA06F20BD952
:10039C001CEB010108F1FF3A80F08880884240F2A2
:1003AC008580A8F102086144091AA4B2B1FBF9F0E6
:1003BC0009FB101144EA014100FB0EFE8E4508D9E1
:1003CC001CEB010100F1FF346CD28E456AD9023866
:1003DC00614440EA0840A0FB0294A1EB0E01A1424B
:1003EC00C846A64656D353D05DB1B3EB080261EBB9
:1003FC000E0101FA07F722FA06F3F1401F43C5E993
:10040C00007100263146BDE8F087C2F12003D840C8
:10041C000CFA02FC21FA03F3914001434FEA1C470A
:10042C001FFA8CFEB3FBF7F007FB10360B0C43EAFC
:10043C00064300FB0EF69E4204FA02F408D91CEBAC
:10044C00030300F1FF382FD29E422DD902386344AA
:10045C009B1B89B2B3FBF7F607FB163341EA03414A
:10046C0006FB0EF38B4208D91CEB010106F1FF3899
:10047C0016D28B4214D9023E6144C91A46EA004690
:10048C0038E72E46284605E70646E3E61846F8E622
:10049C004B45A9D2B9EB020864EB0C0E0138A3E76B
:1004AC004646EAE7204694E74046D1E7D0467BE74C
:1004BC00023B614432E7304609E76444023842E7C4
:1004CC00704700BF80B59AB000AF00F01EFC00F082
:1004DC00EFF800F0D3F900F0A1F900F04BF96C48FB
:1004EC0000F071FE02216A4801F093F8694B022278
:1004FC001A61684B00225A60664B00229A60654B69
:10050C000022DA60634B4FF499721A60614B00223F
:10051C001A75002387F85430012387F855304FF0B3
:10052C009043BB654FF40073A7F85C30002387F849
:10053C004830022387F849304FF09043FB644FF466
:10054C008063A7F85030002387F83C30032387F8EA
:10055C003D30514B3B640123A7F84430002387F80E
:10056C003030042387F831304FF090437B632023E5
:10057C003B87002387F82430052387F825304FF07C
:10058C009043BB621023BB8500233B7606237B760E
:10059C00414BFB6102233B8400233B7307237B739A
:1005AC004FF090433B614FF48073BB8200233B7050
:1005BC0008237B704FF090437B6002233B8107F153
:1005CC0054037B66354B1B78002BFBD0002387F83C
:1005DC00633051E097F86330314AD35C013B072B11
:1005EC0031D801A252F823F0150600081D060008A8
:1005FC00250600082D060008350600083D060008F3
:10060C00450600084D06000807F154037B661EE002
:10061C0007F148037B661AE007F13C037B6616E0A2
:10062C0007F130037B6612E007F124037B660EE0D2
:10063C0007F118037B660AE007F10C037B6606E002
:10064C003B467B6603E0174B01221A7000BF154B2B
:10065C001B78002B05D1144B144A0E49786E00F010
:10066C00B1F9104B00221A700A2000F0C3FB97F866
:10067C006330013387F8633097F86330072BA9D9BF
:10068C00022000F0B7FB054B00221A709AE700BF5E
:10069C0028000020D800002000040048D4000020CE
:1006AC0020010020D50000200C01002010010020AA
:1006BC0080B596B000AF07F1140344220021184610
:1006CC0003F09CFA3B4600221A605A609A60DA608A
:1006DC001A614FF4007001F0BDFC0346002B01D0F1
:1006EC0000F0B2F901F098FC214BD3F89030204A7D
:1006FC0023F01803C2F8903014237B610123FB61B3
:10070C000123FB6200233B6360237B630223FB63B7
:10071C0001233B6401237B642423BB640723FB6418
:10072C0002233B6502237B6507F11403184601F095
:10073C00E7FC0346002B01D000F086F90F233B6049
:10074C0003237B600023BB600023FB6000233B6121
:10075C003B460421184602F0E7F80346002B01D073
:10076C0000F072F902F0FAFC00BF5837BD4680BDAC
:10077C000010024080B58AB000AF264B264A1A60A2
:10078C00244B28225A60234B00229A60214B0022D2
:10079C00DA60204B4FF450221A611E4B00225A6132
:1007AC001C4B00221A761B4B01225A76194B002245
:1007BC009A76184B0022DA76164B00221A77154BD4
:1007CC0000225A77134800F039FB0346002B01D066
:1007DC0000F03AF901233B620A237B6100233B6161
:1007EC0042F260033B6000237B6042F26003BB601B
:1007FC000023FB600023BB610123FB6100237B62B0
:10080C003B461946034800F014FC00BF2837BD4690
:10081C0080BD00BF280000200064004080B500AF00
:10082C00144B154A1A60134B4FF4E1325A60114BBA
:10083C0000229A600F4B0022DA600E4B00221A61E4
:10084C000C4B0C225A610B4B00229A61094B002273
:10085C00DA61084B00221A62064B00225A620548E4
:10086C0002F07EFD0346002B01D000F0EDF800BF36
:10087C0080BD00BF500000200044004080B588B00F
:10088C0000AF07F10C0300221A605A609A60DA601C
:10089C001A61374BDB6C364A43F00403D364344B98
:1008AC00DB6C03F00403BB60BB68314BDB6C304A80
:1008BC0043F00103D3642E4BDB6C03F001037B602C
:1008CC007B682B4BDB6C2A4A43F00203D364284B26
:1008DC00DB6C03F002033B603B68002240F27A7150
:1008EC004FF0904001F066FB00220B21214801F0F3
:1008FC0061FB1A23FB6001233B6100237B61002316
:10090C00BB6107F10C0319464FF0904001F0E8F978
:10091C004FF4EC63FB6001233B6102237B610023FA
:10092C00BB6107F10C0319464FF0904001F0D8F968
:10093C000323FB6001233B6102237B610023BB612A
:10094C0007F10C0319460B4801F0CAF90823FB60A8
:10095C0001233B6100237B610023BB6107F10C0386
:10096C001946044801F0BCF900BF2037BD4680BDD4
:10097C00001002400004004880B582B000AF7860DF
:10098C000B4B0C4A0021786800F031FD0A4B084AE9
:10099C0092E8030083E80300084B01221A70082137
:1009AC00074801F01FFB00BF0837BD4680BD00BFE4
:1009BC0018010020F000002020010020D4000020AD
:1009CC000004004880B584B000AFF860B9607A606C
:1009DC003B60FB681B78002B0CBF01230023DBB2B0
:1009EC001A46FB681A70FB681B78002B08D0FB6852
:1009FC005868FB681B890122194601F0DBFA07E0F5
:100A0C00FB685868FB681B890022194601F0D2FA72
:100A1C00FB685A787B681A707B680133FA68127825
:100A2C001A703B687A68B968054800F010FC082118
:100A3C00044801F0D7FA00BF1037BD4680BD00BF97
:100A4C00280000200004004880B400AF72B600BF3C
:100A5C00FEE7000080B483B000AF0F4B1B6E0E4A54
:100A6C0043F0010313660C4B1B6E03F001037B6018
:100A7C007B68094B9B6D084A43F080539365064B8A
:100A8C009B6D03F080533B603B6800BF0C37BD4649
:100A9C005DF8047B704700BF0010024080B58AB03F
:100AAC0000AF786007F1140300221A605A609A6054
:100ABC00DA601A617B681B68254A934243D1254B47
:100ACC009B6D244A43F000739365224B9B6D03F09E
:100ADC0000733B613B691F4BDB6C1E4A43F0010307
:100AEC00D3641C4BDB6C03F00103FB60FB684FF41D
:100AFC0000637B610223BB610123FB6103233B6227
:100B0C0009237B6207F1140319464FF0904001F062
:100B1C00E7F84FF480537B610223BB610023FB6138
:100B2C0003233B6209237B6207F1140319464FF040
:100B3C00904001F0D5F800220021142001F099F822
:100B4C00142001F0B2F800BF2837BD4680BD00BFAD
:100B5C00006400400010024080B59EB000AF786089
:100B6C0007F1640300221A605A609A60DA601A6115
:100B7C0007F1100354220021184603F03FF87B685C
:100B8C001B68284A934248D102233B6100237B63B4
:100B9C0007F11003184602F0EBF80346002B01D0C6
:100BAC00FFF752FF204B9B6D1F4A43F400339365B4
:100BBC001D4B9B6D03F40033FB60FB681A4BDB6C25
:100BCC00194A43F00103D364174BDB6C03F00103A8
:100BDC00BB60BB6804237B660223BB660023FB66F9
:100BEC0003233B6707237B6707F1640319464FF028
:100BFC00904001F075F84FF400437B660223BB660E
:100C0C000023FB6603233B6703237B6707F1640325
:100C1C0019464FF0904001F063F800BF7837BD469D
:100C2C0080BD00BF004400400010024080B400AF03
:100C3C00FEE780B400AFFEE780B400AFFEE780B4FF
:100C4C0000AFFEE780B400AFFEE780B400AF00BF9A
:100C5C00BD465DF8047B704780B400AF00BFBD4655
:100C6C005DF8047B704780B400AF00BFBD465DF8F3
:100C7C00047B704780B500AF00F09CF800BF80BDCE
:100C8C0080B500AF024800F0EAFC00BF80BD00BF99
:100C9C002800002080B400AF064BD3F88830054AFA
:100CAC0043F47003C2F8883000BFBD465DF8047B86
:100CBC00704700BF00ED00E0DFF834D0FFF7EAFF2B
:100CCC000C480D490D4A002302E0D458C45004339B
:100CDC00C4188C42F9D30A4A0A4C002301E0136071
:100CEC000432A242FBD302F065FFFFF7EBFBFEE7F9
:100CFC0000000120000000200C000020883C0008AF
:100D0C000C0000202C010020FEE780B582B000AF63
:100D1C000023FB71032000F0A1FF002000F00EF86F
:100D2C000346002B02D00123FB7101E0FFF792FE7A
:100D3C00FB7918460837BD4680BD000080B584B0ED
:100D4C0000AF78600023FB73174B1B78002B23D06C
:100D5C00164B1A68144B1B7819464FF47A73B3FB75
:100D6C00F1F3B2FBF3F3184600F0ADFF0346002B92
:100D7C000FD17B680F2B09D8002279684FF0FF3018
:100D8C0000F077FF0A4A7B68136007E00123FB73CE
:100D9C0004E00123FB7301E00123FB73FB7B18468A
:100DAC001037BD4680BD00BF0800002000000020A9
:100DBC000400002080B400AF064B1B781A46064B8B
:100DCC001B681344044A136000BFBD465DF8047BE6
:100DDC00704700BF080000202801002080B400AF3D
:100DEC00034B1B681846BD465DF8047B704700BF7B
:100DFC002801002080B584B000AF7860FFF7EEFFCB
:100E0C00B8607B68FB60FB68B3F1FF3F05D00A4B11
:100E1C001B781A46FB681344FB6000BFFFF7DEFF2C
:100E2C000246BB68D31AFA689A42F7D800BF00BFD3
:100E3C001037BD4680BD00BF0800002080B584B0CF
:100E4C0000AF78607B68002B01D10123EDE07B685B
:100E5C0093F82030DBB2002B02D17868FFF71EFE2E
:100E6C007B681B681A687B681B6842F001021A6079
:100E7C00FFF7B4FFF86012E0FFF7B0FF0246FB6823
:100E8C00D31A0A2B0BD97B685B6A43F400327B685C
:100E9C005A627B68052283F820200123C5E07B6819
:100EAC001B685B6803F00103002BE5D07B681B68B3
:100EBC001A687B681B6822F002021A60FFF78EFF2B
:100ECC00F86012E0FFF78AFF0246FB68D31A0A2B80
:100EDC000BD97B685B6A43F400327B685A627B688F
:100EEC00052283F8202001239FE07B681B685B6848
:100EFC0003F00203002BE5D17B681B7E012B08D18C
:100F0C007B681B681A687B681B6842F080021A6059
:100F1C0007E07B681B681A687B681B6822F08002FC
:100F2C001A607B685B7E012B08D17B681B681A6892
:100F3C007B681B6842F040021A6007E07B681B6804
:100F4C001A687B681B6822F040021A607B689B7EE3
:100F5C00012B08D17B681B681A687B681B6842F000
:100F6C0020021A6007E07B681B681A687B681B68A4
:100F7C0022F020021A607B68DB7E012B08D17B6893
:100F8C001B681A687B681B6822F010021A6007E065
:100F9C007B681B681A687B681B6842F010021A6039
:100FAC007B681B7F012B08D17B681B681A687B68E8
:100FBC001B6842F008021A6007E07B681B681A681D
:100FCC007B681B6822F008021A607B685B7F012B30
:100FDC0008D17B681B681A687B681B6842F00402A6
:100FEC001A6007E07B681B681A687B681B6822F034
:100FFC0004021A607B689A687B68DB681A437B681A
:10100C001B691A437B685B6942EA03017B685B6876
:10101C005A1E7B681B680A43DA617B6800225A629D
:10102C007B68012283F82020002318461037BD4628
:10103C0080BD80B487B000AF786039607B681B6876
:10104C007B617B6893F82030FB74FB7C012B03D015
:10105C00FB7C022B40F0AA807B69D3F8003243F072
:10106C0001027B69C3F800223B685B6903F01F0334
:10107C00012202FA03F3FB607B69D3F81C22FB68A4
:10108C00DB431A407B69C3F81C223B68DB69002BED
:10109C0023D17B69D3F80C22FB68DB431A407B69B4
:1010AC00C3F80C223B68DB6819043B685B689BB295
:1010BC003A68526919437B69483243F832103B68ED
:1010CC009B6819043B681B689AB23B685B690A43CE
:1010DC0079694833DB000B445A603B68DB69012BB0
:1010EC0022D17B69D3F80C22FB681A437B69C3F8C5
:1010FC000C223B681B6819043B685B689BB23A681E
:10110C00526919437B69483243F832103B689B683B
:10111C0019043B68DB689AB23B685B690A437969DE
:10112C004833DB000B445A603B689B69002B09D1A8
:10113C007B69D3F80422FB68DB431A407B69C3F854
:10114C00042207E07B69D3F80422FB681A437B690D
:10115C00C3F804223B681B69002B09D17B69D3F8C7
:10116C001422FB68DB431A407B69C3F8142207E0A6
:10117C007B69D3F81422FB681A437B69C3F81422E9
:10118C003B681B6A012B07D17B69D3F81C22FB68D7
:10119C001A437B69C3F81C227B69D3F8003223F015
:1011AC0001027B69C3F80022002306E07B685B6ABE
:1011BC0043F480227B685A62012318461C37BD46D3
:1011CC005DF8047B704780B584B000AF78607B68B5
:1011DC0093F82030DBB2012B2ED17B68022283F8EE
:1011EC0020207B681B681A687B681B6822F0010250
:1011FC001A60FFF7F3FDF86012E0FFF7EFFD02460F
:10120C00FB68D31A0A2B0BD97B685B6A43F4003258
:10121C007B685A627B68052283F82020012312E048
:10122C007B681B685B6803F00103002BE5D17B68CE
:10123C0000225A62002306E07B685B6A43F40022BA
:10124C007B685A62012318461037BD4680BD80B4B6
:10125C0089B000AFF860B9607A603B60FB6893F8C6
:10126C002030FB77FB681B689B68BB61FB7F012B05
:10127C0003D0FB7F022B40F0AD80BB6903F0806391
:10128C00002B0AD1BB6903F00063002B05D1BB69AD
:10129C0003F08053002B00F09580BB691B0E03F00C
:1012AC0003037B6101227B699A403B681A60BB682F
:1012BC009B68002B0DD1BB681B685A05BB68DB68AB
:1012CC00F96809681A437B6918331B010B441A60CF
:1012DC000FE0BB685B68DA00BB689B681A43BB68AD
:1012EC00DB68F96809681A437B6918331B010B44E6
:1012FC001A60FB681968BB681A697B6918331B0193
:10130C000B4404331A60BB681B7D012B11D1FB68A5
:10131C001A687B6918331B01134404331B68FA6881
:10132C00116843F480727B6918331B010B4404333E
:10133C001A607B6807331B781A067B6806331B78A8
:10134C001B041A437B6805331B781B0213437A6812
:10135C00043212781046FA68116843EA00027B697D
:10136C001B010B4403F5C6731A607B6803331B78AF
:10137C001A067B6802331B781B041A437B68013303
:10138C001B781B0213437A6812781046FA681168AE
:10139C0043EA00027B691B010B4403F5C4731A601A
:1013AC00FB681A687B6918331B0113441B68FA68C5
:1013BC00116843F001027B6918331B010B441A605E
:1013CC0000230EE0FB685B6A43F40012FB685A6270
:1013DC00012306E0FB685B6A43F48022FB685A62D7
:1013EC00012318462437BD465DF8047B704780B452
:1013FC0087B000AFF860B9607A603B60FB6893F827
:10140C002030FB75FB7D012B03D0FB7D022B40F0C4
:10141C00F380BB68002B0ED1FB681B68DB6803F004
:10142C000303002B16D1FB685B6A43F40012FB68C4
:10143C005A620123E7E0FB681B681B6903F0030396
:10144C00002B07D1FB685B6A43F40012FB685A62FD
:10145C000123D8E0FB681A68BB681B331B011344DB
:10146C001B6803F004027B689A607B689B68002B06
:10147C000CD1FB681A68BB681B331B0113441B6837
:10148C005B0DC3F30A027B681A600BE0FB681A68F9
:10149C00BB681B331B0113441B68DB0823F0604241
:1014AC007B685A60FB681A68BB681B331B011344CA
:1014BC001B6803F002027B68DA60FB681A68BB6881
:1014CC001B331B01134404331B6803F00F027B68AE
:1014DC001A61FB681A68BB681B331B011344043385
:1014EC001B681B0ADAB27B689A61FB681A68BB68D6
:1014FC001B331B01134404331B681B0C9AB27B680F
:10150C005A61FB681A68BB681B01134403F5DC7352
:10151C001B68DAB23B681A70FB681A68BB681B015F
:10152C00134403F5DC731B681A0A3B680133D2B20F
:10153C001A70FB681A68BB681B01134403F5DC7353
:10154C001B681A0C3B680233D2B21A70FB681A681B
:10155C00BB681B01134403F5DC731B681A0E3B6854
:10156C000333D2B21A70FB681A68BB681B011344B0
:10157C0003F5DE731A683B680433D2B21A70FB6849
:10158C001A68BB681B01134403F5DE731B681A0A47
:10159C003B680533D2B21A70FB681A68BB681B0132
:1015AC00134403F5DE731B681A0C3B680633D2B286
:1015BC001A70FB681A68BB681B01134403F5DE73D1
:1015CC001B681A0E3B680733D2B21A70BB68002B2B
:1015DC0008D1FB681B68DA68FB681B6842F02002C4
:1015EC00DA6007E0FB681B681A69FB681B6842F04D
:1015FC0020021A61002306E0FB685B6A43F4802238
:10160C00FB685A62012318461C37BD465DF8047B03
:10161C00704780B485B000AF786039607B6893F810
:10162C002030FB73FB7B012B02D0FB7B022B09D1FF
:10163C007B681B6859697B681B683A680A435A6166
:10164C00002306E07B685B6A43F480227B685A6265
:10165C00012318461437BD465DF8047B704780B5EE
:10166C008AB000AF786000237B627B681B685B6983
:10167C003B627B681B685B68FB617B681B689B68D3
:10168C00BB617B681B68DB687B617B681B681B69C3
:10169C003B617B681B689B69FB603B6A03F0010341
:1016AC00002B7CD0BB6903F00103002B23D07B689B
:1016BC001B6801229A60BB6903F00203002B03D064
:1016CC00786800F083F916E0BB6903F00403002B83
:1016DC0004D07B6A43F400637B620CE0BB6903F0CB
:1016EC000803002B04D07B6A43F480537B6202E036
:1016FC00786800F089F9BB6903F48073002B24D05F
:10170C007B681B684FF480729A60BB6903F40073AA
:10171C00002B03D0786800F063F916E0BB6903F482
:10172C008063002B04D07B6A43F400537B620CE093
:10173C00BB6903F40063002B04D07B6A43F4804341
:10174C007B6202E0786800F069F9BB6903F48033CE
:10175C00002B24D07B681B684FF480329A60BB69E5
:10176C0003F40033002B03D0786800F043F916E043
:10177C00BB6903F48023002B04D07B6A43F4004341
:10178C007B620CE0BB6903F40023002B04D07B6A62
:10179C0043F480337B6202E0786800F049F93B6ADD
:1017AC0003F00803002B0CD07B6903F01003002B13
:1017BC0007D07B6A43F400737B627B681B68102242
:1017CC00DA603B6A03F00403002B0BD07B6903F057
:1017DC000803002B06D07B681B680822DA60786847
:1017EC0000F030F93B6A03F00203002B09D07B6850
:1017FC001B68DB6803F00303002B02D07868FFF74B
:10180C00BBF83B6A03F04003002B0CD03B6903F0A0
:10181C001003002B07D07B6A43F480637B627B68E8
:10182C001B6810221A613B6A03F02003002B0BD0BB
:10183C003B6903F00803002B06D07B681B68082269
:10184C001A61786800F012F93B6A03F01003002B60
:10185C0009D07B681B681B6903F00303002B02D0C3
:10186C00786800F0F9F83B6A03F40033002B0BD0D6
:10187C00FB6903F01003002B06D07B681B68102259
:10188C005A60786800F0FCF83B6A03F48033002B54
:10189C000BD0FB6903F00803002B06D07B681B6898
:1018AC0008225A60786800F0F5F83B6A03F40043AC
:1018BC00002B7BD0FB6903F00403002B72D03B6A36
:1018CC0003F48073002B08D0FB6803F00103002B9A
:1018DC0003D07B6A43F001037B623B6A03F4007321
:1018EC00002B08D0FB6803F00203002B03D07B6AAB
:1018FC0043F002037B623B6A03F48063002B08D045
:10190C00FB6803F00403002B03D07B6A43F0040351
:10191C007B623B6A03F40063002B43D0FB6803F04B
:10192C007003002B3ED0FB6803F07003602B2BD0B0
:10193C00602B2ED8502B22D0502B2AD8402B19D0CC
:10194C00402B26D8302B10D0302B22D8102B02D085
:10195C00202B05D01DE07B6A43F008037B6219E065
:10196C007B6A43F010037B6214E07B6A43F0200334
:10197C007B620FE07B6A43F040037B620AE07B6A88
:10198C0043F080037B6205E07B6A43F480737B62E7
:10199C0000E000BF7B681B689A697B681B6822F0BB
:1019AC0070029A617B681B6804225A607B6A002B68
:1019BC0008D07B685A6A7B6A1A437B685A627868DB
:1019CC0000F072F800BF2837BD4680BD80B483B0EC
:1019DC0000AF786000BF0C37BD465DF8047B7047E4
:1019EC0080B483B000AF786000BF0C37BD465DF8A3
:1019FC00047B704780B483B000AF786000BF0C37B5
:101A0C00BD465DF8047B704780B483B000AF78604E
:101A1C0000BF0C37BD465DF8047B704780B483B0C3
:101A2C0000AF786000BF0C37BD465DF8047B704793
:101A3C0080B483B000AF786000BF0C37BD465DF852
:101A4C00047B704780B483B000AF786000BF0C3764
:101A5C00BD465DF8047B704780B483B000AF7860FE
:101A6C0000BF0C37BD465DF8047B704780B483B073
:101A7C0000AF786000BF0C37BD465DF8047B704743
:101A8C0080B483B000AF786000BF0C37BD465DF802
:101A9C00047B704780B483B000AF786000BF0C3714
:101AAC00BD465DF8047B704780B483B000AF7860AE
:101ABC0000BF0C37BD465DF8047B704780B485B021
:101ACC0000AF78607B6803F00703FB600C4BDB68AE
:101ADC00BB60BA684FF6FF031340BB60FB681A0289
:101AEC00BB68134343F0BF6343F40033BB60044A49
:101AFC00BB68D36000BF1437BD465DF8047B7047EC
:101B0C0000ED00E080B400AF044BDB681B0A03F06F
:101B1C0007031846BD465DF8047B704700ED00E0F6
:101B2C0080B483B000AF0346FB7197F90730002BEC
:101B3C000BDBFB7903F01F02074997F907305B09B0
:101B4C00012000FA02F241F8232000BF0C37BD46F9
:101B5C005DF8047B704700BF00E100E080B483B007
:101B6C0000AF03463960FB7197F90730002B0ADB95
:101B7C003B68DAB20C4997F907301201D2B20B4428
:101B8C0083F800230AE03B68DAB20849FB7903F0DA
:101B9C000F03043B1201D2B20B441A7600BF0C3770
:101BAC00BD465DF8047B704700E100E000ED00E00D
:101BBC0080B489B000AFF860B9607A60FB6803F05C
:101BCC000703FB61FB69C3F10703042B28BF042344
:101BDC00BB61FB690433062B02D9FB69033B00E0B4
:101BEC0000237B614FF0FF32BB6902FA03F3DA4347
:101BFC00BB681A407B699A404FF0FF317B6901FA50
:101C0C0003F3D9437B680B40134318462437BD4676
:101C1C005DF8047B7047000080B582B000AF78603F
:101C2C007B68013BB3F1807F01D301230FE00A4AAB
:101C3C007B68013B53600F214FF0FF30FFF78EFFA5
:101C4C00054B00229A60044B07221A6000231846A9
:101C5C000837BD4680BD00BF10E000E080B582B003
:101C6C0000AF78607868FFF729FF00BF0837BD46E2
:101C7C0080BD80B586B000AF0346B9607A60FB7357
:101C8C0000237B61FFF73EFF78617A68B968786959
:101C9C00FFF78EFF024697F90F3011461846FFF7F3
:101CAC005DFF00BF1837BD4680BD80B582B000AF68
:101CBC000346FB7197F907301846FFF731FF00BF59
:101CCC000837BD4680BD80B582B000AF78607868BB
:101CDC00FFF7A2FF034618460837BD4680BD00003B
:101CEC0080B487B000AF7860396000237B6148E135
:101CFC003B681A6801217B6901FA03F31340FB600E
:101D0C00FB68002B00F03A813B685B6803F003032F
:101D1C00012B05D03B685B6803F00303022B30D129
:101D2C007B689B683B617B695B00032202FA03F3CF
:101D3C00DB433A6913403B613B68DA687B695B00C3
:101D4C0002FA03F33A6913433B617B683A699A6080
:101D5C007B685B683B6101227B6902FA03F3DB431E
:101D6C003A6913403B613B685B681B0903F0010255
:101D7C007B6902FA03F33A6913433B617B683A6966
:101D8C005A603B685B6803F00303032B17D07B6836
:101D9C00DB683B617B695B00032202FA03F3DB43E4
:101DAC003A6913403B613B689A687B695B0002FAB5
:101DBC0003F33A6913433B617B683A69DA603B6829
:101DCC005B6803F00303022B23D17B69DA087B6881
:101DDC00083253F822303B617B6903F007039B0008
:101DEC000F2202FA03F3DB433A6913403B613B6871
:101DFC001A697B6903F007039B0002FA03F33A6943
:101E0C0013433B617B69DA087B680832396943F814
:101E1C0022107B681B683B617B695B00032202FA22
:101E2C0003F3DB433A6913403B613B685B6803F0A7
:101E3C0003027B695B0002FA03F33A6913433B61CB
:101E4C007B683A691A603B685B6803F44033002B8B
:101E5C0000F09480524B1B6E514A43F00103136601
:101E6C004F4B1B6E03F00103BB60BB684D4A7B6993
:101E7C009B08023352F823303B617B6903F0030368
:101E8C009B000F2202FA03F3DB433A6913403B61D8
:101E9C007B68B3F1904F0DD07B68434A934207D0D7
:101EAC007B68424A934201D1022304E0072302E0FB
:101EBC00012300E000237A6902F0030292009340B0
:101ECC003A6913433B6137497B699B0802333A6992
:101EDC0041F82320364B9B683B61FB68DB433A6936
:101EEC0013403B613B685B6803F48013002B03D009
:101EFC003A69FB6813433B612D4A3B6993602C4B59
:101F0C00DB683B61FB68DB433A6913403B613B6830
:101F1C005B6803F40013002B03D03A69FB6813438E
:101F2C003B61234A3B69D360214B5B683B61FB6897
:101F3C00DB433A6913403B613B685B6803F4003355
:101F4C00002B03D03A69FB6813433B61184A3B6989
:101F5C005360174B1B683B61FB68DB433A691340CA
:101F6C003B613B685B6803F48033002B03D03A6918
:101F7C00FB6813433B610E4A3B6913607B69013379
:101F8C007B613B681A687B6922FA03F3002B7FF4B0
:101F9C00AFAE00BF00BF1C37BD465DF8047B704779
:101FAC0000100240000001400004004800080048F6
:101FBC000004014080B483B000AF78600B467B8096
:101FCC0013467B707B78002B03D07A887B689A61F0
:101FDC0002E07A887B689A6200BF0C37BD465DF8D8
:101FEC00047B704780B485B000AF78600B467B8073
:101FFC007B685B69FB607A88FB6813401A04FB689A
:10200C00D9437B880B401A437B689A6100BF143715
:10201C00BD465DF8047B704780B400AF054B1B6870
:10202C00044A43F48073136000BFBD465DF8047B23
:10203C00704700BF0070004080B400AF044B1B68B9
:10204C0003F4C0631846BD465DF8047B704700BFBF
:10205C000070004080B485B000AF78607B68B3F549
:10206C00007F30D1234B1B6803F4C063B3F5007FB2
:10207C0038D0204B1B6823F4C0631E4A43F4007312
:10208C0013601D4B1B68322202FB03F31B4AA2FB9D
:10209C0003239B0C0133FB6002E0FB68013BFB60FC
:1020AC00144B5B6903F48063B3F5806F02D1FB685A
:1020BC00002BF2D10F4B5B6903F48063B3F5806F97
:1020CC0010D103230FE00B4B1B6803F4C063B3F573
:1020DC00806F07D0074B1B6823F4C063054A43F499
:1020EC0080631360002318461437BD465DF8047BEB
:1020FC00704700BF007000400000002083DE1B43CF
:10210C0080B588B000AF78607B68002B02D10123CA
:10211C0000F002BC964B9B6803F00C03BB61944B24
:10212C00DB6803F003037B617B681B6803F010031F
:10213C00002B00F0E480BB69002B07D0BB690C2B93
:10214C0040F08B807B69012B40F08780884B1B68AB
:10215C0003F00203002B05D07B689B69002B01D197
:10216C000123D9E37B681A6A814B1B6803F00803CF
:10217C00002B04D07E4B1B6803F0F00305E07C4B76
:10218C00D3F894301B0903F0F003934223D27B68FD
:10219C001B6A184600F08CFD0346002B01D001236E
:1021AC00BAE3734B1B68724A43F008031360704B1D
:1021BC001B6823F0F0027B681B6A6D4913430B60AC
:1021CC006B4B5B6823F47F427B68DB691B026849BD
:1021DC0013434B6025E0664B1B68654A43F00803CC
:1021EC001360634B1B6823F0F0027B681B6A604929
:1021FC0013430B605E4B5B6823F47F427B68DB69A7
:10220C001B025B4913434B60BB69002B09D17B68F4
:10221C001B6A184600F04CFD0346002B01D001232D
:10222C007AE300F081FC0246514B9B681B0903F0DA
:10223C000F035049CB5C03F01F0322FA03F34E4A01
:10224C0013604E4B1B681846FEF778FD0346FB7374
:10225C00FB7B002B52D0FB7B5EE37B689B69002BE6
:10226C0032D0434B1B68424A43F001031360FEF724
:10227C00B5FD386108E0FEF7B1FD02463B69D31AA3
:10228C00022B01D9032347E3394B1B6803F00203EC
:10229C00002BF0D0364B1B68354A43F00803136013
:1022AC00334B1B6823F0F0027B681B6A30491343E5
:1022BC000B602F4B5B6823F47F427B68DB691B024E
:1022CC002B4913434B601AE0294B1B68284A23F017
:1022DC0001031360FEF782FD386108E0FEF77EFD16
:1022EC0002463B69D31A022B01D9032314E3204B7A
:1022FC001B6803F00203002BF0D100E000BF7B68E9
:10230C001B6803F00103002B73D0BB69082B05D0AD
:10231C00BB690C2B0ED17B69032B0BD1144B1B68A7
:10232C0003F40033002B63D07B685B68002B5FD118
:10233C000123F1E27B685B68B3F5803F06D10C4B5F
:10234C001B680B4A43F48033136025E07B685B68A1
:10235C00B3F5A02F14D1064B1B68054A43F4802318
:10236C001360034B1B68024A43F48033136013E081
:10237C0000100240303C0008000000200400002047
:10238C00A04B1B689F4A23F4803313609D4B1B6842
:10239C009C4A23F4802313607B685B68002B13D06A
:1023AC00FEF71CFD386108E0FEF718FD02463B699C
:1023BC00D31A642B01D90323AEE2924B1B6803F4AE
:1023CC000033002BF0D014E0FEF708FD386108E074
:1023DC00FEF704FD02463B69D31A642B01D9032393
:1023EC009AE2884B1B6803F40033002BF0D100E019
:1023FC0000BF7B681B6803F00203002B60D0BB6935
:10240C00042B05D0BB690C2B19D17B69022B16D17F
:10241C007C4B1B6803F48063002B05D07B68DB6866
:10242C00002B01D1012377E2764B5B6823F0F85245
:10243C007B681B691B06734913434B6040E07B6848
:10244C00DB68002B23D06F4B1B686E4A43F4807300
:10245C001360FEF7C3FC386108E0FEF7BFFC0246D0
:10246C003B69D31A022B01D9032355E2654B1B6838
:10247C0003F48063002BF0D0624B5B6823F0F852BE
:10248C007B681B691B065F4913434B6018E05D4B6F
:10249C001B685C4A23F480731360FEF79FFC386161
:1024AC0008E0FEF79BFC02463B69D31A022B01D9CC
:1024BC00032331E2534B1B6803F48063002BF0D1F0
:1024CC007B681B6803F00803002B3CD07B685B69BE
:1024DC00002B1CD04B4BD3F894304A4A43F00103E9
:1024EC00C2F89430FEF77AFC386108E0FEF776FC0F
:1024FC0002463B69D31A022B01D903230CE2414B50
:10250C00D3F8943003F00203002BEFD01BE03D4BCB
:10251C00D3F894303B4A23F00103C2F89430FEF711
:10252C005DFC386108E0FEF759FC02463B69D31AA2
:10253C00022B01D90323EFE1324BD3F8943003F093
:10254C000203002BEFD17B681B6803F00403002B04
:10255C0000F0A6800023FB772A4B9B6D03F0805381
:10256C00002B0DD1274B9B6D264A43F0805393656E
:10257C00244B9B6D03F08053BB60BB680123FB773E
:10258C00214B1B6803F48073002B18D11E4B1B6866
:10259C001D4A43F480731360FEF720FC386108E099
:1025AC00FEF71CFC02463B69D31A022B01D903230C
:1025BC00B2E1154B1B6803F48073002BF0D07B68E1
:1025CC009B68012B08D10F4BD3F890300D4A43F088
:1025DC000103C2F8903029E07B689B68052B15D16C
:1025EC00084BD3F89030074A43F00403C2F89030FC
:1025FC00044BD3F89030034A43F00103C2F89030F7
:10260C0014E000BF00100240007000409A4BD3F859
:10261C009030994A23F00103C2F89030964BD3F8CE
:10262C009030954A23F00403C2F890307B689B6885
:10263C00002B16D0FEF7D2FB38610AE0FEF7CEFB7A
:10264C0002463B69D31A41F28832934201D90323E3
:10265C0062E1894BD3F8903003F00203002BEDD0EC
:10266C0015E0FEF7BBFB38610AE0FEF7B7FB02464C
:10267C003B69D31A41F28832934201D903234BE1CF
:10268C007D4BD3F8903003F00203002BEDD1FB7F90
:10269C00012B05D1784B9B6D774A23F080539365C2
:1026AC007B681B6803F02003002B3CD07B685B6AC3
:1026BC00002B1CD0704BD3F898306F4A43F00103B9
:1026CC00C2F89830FEF78AFB386108E0FEF786FB0B
:1026DC0002463B69D31A022B01D903231CE1664B3A
:1026EC00D3F8983003F00203002BEFD01BE0624BC1
:1026FC00D3F89830604A23F00103C2F89830FEF703
:10270C006DFB386108E0FEF769FB02463B69D31AA2
:10271C00022B01D90323FFE0574BD3F8983003F079
:10272C000203002BEFD17B689B6A002B00F0F38037
:10273C007B689B6A022B40F0C9804F4BDB687B6146
:10274C007B6903F003027B68DB6A9A422CD17B69BC
:10275C0003F070027B681B6B013B1B019A4223D177
:10276C007B6903F4FE427B685B6B1B029A421BD1B4
:10277C007B6903F078427B689B6BDB069A4213D132
:10278C007B6903F4C0027B68DB6B5B08013B5B0578
:10279C009A4209D17B6903F0C0627B681B6C5B08B1
:1027AC00013B5B069A426BD0BB690C2B62D0324B5F
:1027BC001B6803F08063002B01D00123ACE02E4B8F
:1027CC001B682D4A23F080731360FEF707FB3861FA
:1027DC0008E0FEF703FB02463B69D31A022B01D932
:1027EC00032399E0244B1B6803F00073002BF0D1FA
:1027FC00214BDA68214B13407A68D16A7A68126BE4
:10280C00013A120111437A68526B120211437A6831
:10281C00D26B5208013A520511437A68126C520875
:10282C00013A520611437A68926BD2060A43124956
:10283C001343CB60104B1B680F4A43F0807313603B
:10284C000D4BDB680C4A43F08073D360FEF7C6FA7D
:10285C00386108E0FEF7C2FA02463B69D31A022B34
:10286C0001D9032358E0044B1B6803F00073002BC1
:10287C00F0D050E001234FE0001002408C809D010D
:10288C00274B1B6803F00073002B44D1244B1B68AF
:10289C00234A43F080731360214BDB68204A43F0DA
:1028AC008073D360FEF79AFA386108E0FEF796FA67
:1028BC0002463B69D31A022B01D903232CE0184B97
:1028CC001B6803F00073002BF0D024E0BB690C2BC9
:1028DC001FD0134B1B68124A23F080731360FEF752
:1028EC007DFA386108E0FEF779FA02463B69D31AA3
:1028FC00022B01D903230FE0094B1B6803F0007373
:10290C00002BF0D1064BDA680549064B1340CB601F
:10291C0001E0012300E0002318462037BD4680BDAE
:10292C0000100240FCFFEEFE80B584B000AF786072
:10293C0039607B68002B01D10123E7E0754B1B68E4
:10294C0003F007033A689A4210D9724B1B6823F0C4
:10295C00070270493B6813430B606E4B1B6803F016
:10296C0007033A689A4201D00123CFE07B681B68C9
:10297C0003F00203002B10D07B689A68664B9B68AF
:10298C0003F0F0039A4208D9634B9B6823F0F002E2
:10299C007B689B68604913438B607B681B6803F002
:1029AC000103002B4CD07B685B68032B07D15A4B7F
:1029BC001B6803F00073002B21D10123A6E07B6878
:1029CC005B68022B07D1544B1B6803F40033002BBC
:1029DC0015D101239AE07B685B68002B07D14E4B25
:1029EC001B6803F00203002B09D101238EE04A4B34
:1029FC001B6803F48063002B01D1012386E0464B56
:102A0C009B6823F003027B685B68434913438B602C
:102A1C00FEF7E4F9F8600AE0FEF7E0F90246FB681D
:102A2C00D31A41F28832934201D903236EE03A4B18
:102A3C009B6803F00C027B685B689B009A42EBD1AD
:102A4C007B681B6803F00203002B10D07B689A682C
:102A5C00314B9B6803F0F0039A4208D22E4B9B68D3
:102A6C0023F0F0027B689B682B4913438B60294B46
:102A7C001B6803F007033A689A4210D2254B1B6877
:102A8C0023F0070223493B6813430B60214B1B685F
:102A9C0003F007033A689A4201D0012336E07B68C1
:102AAC001B6803F00403002B08D01B4B9B6823F41A
:102ABC00E0627B68DB68184913438B607B681B689A
:102ACC0003F00803002B09D0134B9B6823F46052CE
:102ADC007B681B69DB00104913438B6000F024F802
:102AEC0002460D4B9B681B0903F00F030B49CB5C93
:102AFC0003F01F0322FA03F3094A1360094B1B6806
:102B0C001846FEF71BF90346FB72FB7A1846103782
:102B1C00BD4680BD0020024000100240303C000841
:102B2C00000000200400002080B489B000AF002316
:102B3C00FB610023BB613E4B9B6803F00C033B61C4
:102B4C003B4BDB6803F00303FB603B69002B05D0B8
:102B5C003B690C2B21D1FB68012B1ED1344B1B681C
:102B6C0003F00803002B07D1314BD3F894301B0A28
:102B7C0003F00F03FB6105E02D4B1B681B0903F0F1
:102B8C000F03FB612B4AFB6952F82330FB613B6955
:102B9C00002B0DD1FB69BB610AE03B69042B02D110
:102BAC00254BBB6104E03B69082B01D1234BBB6176
:102BBC003B690C2B34D11E4BDB6803F00303BB6069
:102BCC00BB68022B03D0BB68032B03D005E01A4B68
:102BDC007B6105E0194B7B6102E0FB697B6100BF07
:102BEC00134BDB681B0903F0070301337B60104BAD
:102BFC00DB681B0A03F07F037A6903FB02F27B6834
:102C0C00B2FBF3F37B610A4BDB685B0E03F003034F
:102C1C0001335B003B607A693B68B2FBF3F3BB6149
:102C2C00BB6918462437BD465DF8047B704700BF6E
:102C3C0000100240483C00080024F40000127A0006
:102C4C0080B400AF034B1B681846BD465DF8047B8F
:102C5C00704700BF0000002080B500AFFFF7F0FF09
:102C6C000246064B9B681B0A03F007030449CB5C26
:102C7C0003F01F0322FA03F3184680BD0010024034
:102C8C00403C000880B500AFFFF7DAFF0246064B68
:102C9C009B68DB0A03F007030449CB5C03F01F03BA
:102CAC0022FA03F3184680BD00100240403C000895
:102CBC0080B586B000AF786000233B612A4B9B6DDA
:102CCC0003F08053002B03D0FFF7B6F9786114E0C2
:102CDC00254B9B6D244A43F080539365224B9B6D8F
:102CEC0003F08053FB60FB68FFF7A6F978611E4B7D
:102CFC009B6D1D4A23F0805393657B69B3F5007F70
:102D0C000BD17B68802B19D97B68A02B02D90223AD
:102D1C003B6113E001233B6110E07B68802B02D9FF
:102D2C0003233B610AE07B68802B02D102233B61C9
:102D3C0004E07B68702B01D101233B610B4B1B68BA
:102D4C0023F0070209493B6913430B60074B1B68CF
:102D5C0003F007033A699A4201D0012300E00023F3
:102D6C0018461837BD4680BD0010024000200240B6
:102D7C0080B586B000AF78600023FB740023BB7471
:102D8C007B681B6803F40063002B31D07B68DB6B22
:102D9C00B3F5400F1AD0B3F5400F14D8002B09D05F
:102DAC00B3F5000F0FD15D4BDB685C4A43F4803305
:102DBC00D3600CE07B6804330021184600F0DEF988
:102DCC000346FB7403E00123FB7400E000BFFB7CB3
:102DDC00002B0BD1514BD3F8883023F440027B6885
:102DEC00DB6B4E491343C1F8883001E0FB7CBB74AC
:102DFC007B681B6803F40033002B00F09E800023DB
:102E0C007B74464B9B6D03F08053002B01D1012347
:102E1C0000E00023002B0DD0404B9B6D3F4A43F04C
:102E2C00805393653D4B9B6D03F08053BB60BB6837
:102E3C0001237B743A4B1B68394A43F4807313604B
:102E4C00FDF7CCFFF86009E0FDF7C8FF0246FB6810
:102E5C00D31A022B02D90323FB7405E0304B1B68F9
:102E6C0003F48073002BEFD0FB7C002B5AD12B4B3F
:102E7C00D3F8903003F440737B617B69002B1ED038
:102E8C007B681B6D7A699A4219D0244BD3F8903029
:102E9C0023F440737B61214BD3F890301F4A43F4E9
:102EAC008033C2F890301D4BD3F890301B4A23F47A
:102EBC008033C2F89030194A7B69C2F890307B6934
:102ECC0003F00103002B16D0FDF788FFF8600BE030
:102EDC00FDF784FF0246FB68D31A41F28832934215
:102EEC0002D90323FB7406E00C4BD3F8903003F0AB
:102EFC000203002BECD0FB7C002B0BD1074BD3F83F
:102F0C00903023F440727B681B6D04491343C1F865
:102F1C00903009E0FB7CBB7406E000BF001002405F
:102F2C0000700040FB7CBB747B7C012B05D18A4B71
:102F3C009B6D894A23F0805393657B681B6803F073
:102F4C000103002B0AD0844BD3F8883023F0030202
:102F5C007B681B6A80491343C1F888307B681B6807
:102F6C0003F00203002B0AD07B4BD3F8883023F0FC
:102F7C000C027B685B6A78491343C1F888307B6824
:102F8C001B6803F02003002B0AD0734BD3F8883056
:102F9C0023F440627B689B6A6F491343C1F8883005
:102FAC007B681B6803F40073002B0AD06A4BD3F8C0
:102FBC00883023F440227B685B6B67491343C1F86C
:102FCC0088307B681B6803F48063002B0AD0624B4B
:102FDC00D3F8883023F440127B689B6B5E49134313
:102FEC00C1F888307B681B6803F04003002B0AD0C3
:102FFC00594BD3F8883023F440527B68DB6A56492E
:10300C001343C1F888307B681B6803F48073002B72
:10301C000AD0514BD3F8883023F440327B681B6BB9
:10302C004D491343C1F888307B681B6803F4005387
:10303C00002B28D0484BD3F8883023F040627B68B3
:10304C001B6C45491343C1F888307B681B6CB3F18A
:10305C00006F06D1404BDB683F4A43F48013D360CA
:10306C0011E07B681B6CB3F1806F0CD17B6804336F
:10307C000121184600F082F80346FB74FB7C002B00
:10308C0001D0FB7CBB747B681B6803F48023002B92
:10309C0028D0314BD3F8883023F040627B685B6CCE
:1030AC002D491343C1F888307B685B6CB3F1006F1A
:1030BC0006D1294BDB68284A43F48013D36011E016
:1030CC007B685B6CB3F1806F0CD17B68043301219E
:1030DC00184600F053F80346FB74FB7C002B01D020
:1030EC00FB7CBB747B681B6803F48043002B1CD0F7
:1030FC00194BD3F8883023F040527B689B6C1649EF
:10310C001343C1F888307B689B6CB3F1805F0CD1A2
:10311C007B6804330221184600F030F80346FB7438
:10312C00FB7C002B01D0FB7CBB747B681B6803F41D
:10313C000043002B0AD0084BD3F8883023F0804290
:10314C007B68DB6C04491343C1F88830BB7C1846A0
:10315C001837BD4680BD00BF0010024080B400AFE0
:10316C00054B1B68044A43F00403136000BFBD46C3
:10317C005DF8047B704700BF0010024080B584B03E
:10318C0000AF786039600023FB73744BDB6803F08D
:10319C000303002B18D0714BDB6803F003027B6830
:1031AC001B689A420DD17B681B68002B09D06B4BB6
:1031BC00DB681B0903F007035A1C7B685B689A42A7
:1031CC0047D00123FB7344E07B681B68032B18D0AA
:1031DC00032B25D8012B02D0022B09D020E05F4B0A
:1031EC001B6803F00203002B1DD10123FB731AE0B3
:1031FC005A4B1B6803F48063002B16D10123FB731D
:10320C0013E0564B1B6803F40033002B0FD1534BC8
:10321C001B6803F48023002B09D10123FB7306E008
:10322C000123FB7304E000BF02E000BF00E000BF1D
:10323C00FB7B002B0DD1494BDB6823F073027B68C1
:10324C0019687B685B68013B1B010B4343491343C3
:10325C00CB60FB7B002B7CD1404B1B683F4A23F09F
:10326C0080631360FDF7BAFDB86009E0FDF7B6FDA9
:10327C000246BB68D31A022B02D90323FB7305E069
:10328C00364B1B6803F00063002BEFD1FB7B002B4C
:10329C005FD13B68002B10D1304B1B6923F0784376
:1032AC0023F4FE437A68926811027A68D268D206D7
:1032BC000A432A4913430B6127E03B68012B12D1C7
:1032CC00264B1B6923F4C00323F4FE437A689268EF
:1032DC0011027A6812695208013A52050A431F49D1
:1032EC0013430B6111E01D4B1B6923F0C06323F4E6
:1032FC00FE437A68926811027A6852695208013A60
:10330C0052060A43154913430B61144B1B68134AAD
:10331C0043F080631360FDF761FDB86009E0FDF7D1
:10332C005DFD0246BB68D31A022B02D90323FB7343
:10333C0005E00A4B1B6803F00063002BEFD0FB7B0E
:10334C00002B06D1054B1A697B689B690349134313
:10335C000B61FB7B18461037BD4680BD0010024048
:10336C0080B582B000AF78607B68002B01D101235F
:10337C0040E07B689B6F002B06D17B68002283F8B2
:10338C0074207868FDF7E8FB7B6824229A677B68D9
:10339C001B681A687B681B6822F001021A60786847
:1033AC0000F02CF80346012B01D1012322E07B68AD
:1033BC005B6A002B02D0786800F04CFA7B681B68C3
:1033CC005A687B681B6822F490425A607B681B68C1
:1033DC009A687B681B6822F02A029A607B681B68DB
:1033EC001A687B681B6842F001021A60786800F06A
:1033FC00D3FA034618460837BD4680BD2DE9B04FB9
:10340C008AB000AFF860002387F82230FB689A6816
:10341C00FB681B691A43FB685B691A43FB68DB6931
:10342C0013437B62FB681B681A68B44B1340FA6841
:10343C001268796A0B431360FB681B685B6823F4A2
:10344C004051FB68DA68FB681B680A435A60FB68EA
:10345C009B697B62FB681B68A94A934204D0FB689A
:10346C001B6A7A6A13437B62FB681B689B6823F4B4
:10347C003061FB681B687A6A0A439A60FB681B68B8
:10348C00A04A934226D1A04BD3F8883003F0030313
:10349C00032B1BD801A252F823F000BFB93400084B
:1034AC00C9340008C1340008D1340008012387F85E
:1034BC00233080E0022387F823307CE0042387F854
:1034CC00233078E0082387F8233074E0102387F842
:1034DC00233070E0FB681B688C4A934238D18A4BCE
:1034EC00D3F8883003F00C030C2B2DD801A252F822
:1034FC0023F000BF35350008553500085535000858
:10350C005535000845350008553500085535000877
:10351C00553500083D35000855350008553500086F
:10352C00553500084D350008002387F8233042E05C
:10353C00022387F823303EE0042387F823303AE057
:10354C00082387F8233036E0102387F8233032E045
:10355C00FB681B686A4A93422AD16B4BD3F88830BC
:10356C0003F44063B3F5406F1AD0B3F5406F1BD82A
:10357C00B3F5006F0CD0B3F5006F15D8002B03D04A
:10358C00B3F5806F08D00FE0002387F8233012E0EA
:10359C00022387F823300EE0042387F823300AE057
:1035AC00082387F8233006E0102387F8233002E045
:1035BC00102387F82330FB681B68514A93427AD159
:1035CC0097F82330082B24D801A252F823F000BF1F
:1035DC00013600081F360008093600081F3600089F
:1035EC000F3600081F3600081F3600081F3600086B
:1035FC0017360008FFF730FBF86110E0444BFB6115
:10360C000DE0FFF791FAF86109E04FF40043FB611C
:10361C0005E00023FB61012387F8223000BFFB6922
:10362C00002B00F00781FB685A6813465B001344BB
:10363C00FA699A4205D3FB685B681B03FA699A42E4
:10364C0003D9012387F82230F4E0FB6900221C46E1
:10365C0015464FF000024FF000032B0243EA1463AF
:10366C002202F9684968490800208846814612EB15
:10367C00080A43EB090BFB685B6800223B607A602D
:10368C00D7E9002350465946FCF79AFD02460B46F3
:10369C001346BB61BB69B3F5407F08D3BB69B3F577
:1036AC00801F04D2FB681B68BA69DA60C2E0012390
:1036BC0087F82230BEE0FB68DB69B3F5004F6AD1B6
:1036CC0097F82330082B34D801A252F823F000BF0E
:1036DC000137000821370008293700083F37000858
:1036EC002F3700083F3700083F3700083F370008E6
:1036FC0037370008FFF7B0FAF86120E0F369FFEF05
:10370C00008000400038014000100240004400409E
:10371C000024F400FFF7B6FAF86110E04C4BFB61A3
:10372C000DE0FFF701FAF86109E04FF40043FB618B
:10373C0005E00023FB61012387F8223000BFFB6901
:10374C00002B77D0FB695A00FB685B685B081A4456
:10375C00FB685B68B2FBF3F3BB61BB690F2B16D93B
:10376C00BB69B3F5803F12D2BB699BB223F00F0348
:10377C00FB82BB695B089BB203F007039AB2FB8A1E
:10378C001343FB82FB681B68FA8ADA6052E0012360
:10379C0087F822304EE097F82330082B27D801A267
:1037AC0052F823F0D5370008DD370008E53700085C
:1037BC00FB370008EB370008FB370008FB37000825
:1037CC00FB370008F3370008FFF746FAF86114E0FE
:1037DC00FFF758FAF86110E01D4BFB610DE0FFF7A5
:1037EC00A3F9F86109E04FF40043FB6105E0002305
:1037FC00FB61012387F8223000BFFB69002B19D035
:10380C00FB685B685A08FB691A44FB685B68B2FB8F
:10381C00F3F3BB61BB690F2B09D9BB69B3F5803FCF
:10382C0005D2BB699AB2FB681B68DA6002E001231F
:10383C0087F82230FB6800225A66FB6800229A66E1
:10384C0097F8223018462837BD46BDE8B08F00BF28
:10385C000024F40080B483B000AF78607B685B6AAE
:10386C0003F00103002B0AD07B681B685B6823F410
:10387C0000317B689A6A7B681B680A435A607B68D4
:10388C005B6A03F00203002B0AD07B681B685B6841
:10389C0023F480317B68DA6A7B681B680A435A60C0
:1038AC007B685B6A03F00403002B0AD07B681B68FF
:1038BC005B6823F480217B681A6B7B681B680A4366
:1038CC005A607B685B6A03F00803002B0AD07B68A4
:1038DC001B685B6823F400417B685A6B7B681B6830
:1038EC000A435A607B685B6A03F01003002B0AD012
:1038FC007B681B689B6823F480517B689A6B7B68A0
:10390C001B680A439A607B685B6A03F02003002BF8
:10391C000AD07B681B689B6823F400517B68DA6BC8
:10392C007B681B680A439A607B685B6A03F0400300
:10393C00002B1AD07B681B685B6823F480117B68B2
:10394C001A6C7B681B680A435A607B681B6CB3F566
:10395C00801F0AD17B681B685B6823F4C0017B68FD
:10396C005A6C7B681B680A435A607B685B6A03F07D
:10397C008003002B0AD07B681B685B6823F4002152
:10398C007B689A6C7B681B680A435A6000BF0C37D3
:10399C00BD465DF8047B704780B586B002AF786099
:1039AC007B680022C3F88020FDF718FAF8607B686A
:1039BC001B681B6803F00803082B0ED16FF07E43C5
:1039CC000093FB6800224FF40011786800F02DF88A
:1039DC000346002B01D0032323E07B681B681B6884
:1039EC0003F00403042B0ED16FF07E430093FB68AD
:1039FC0000224FF48001786800F017F80346002B82
:103A0C0001D003230DE07B6820229A677B6820227B
:103A1C00DA677B6800221A667B68002283F87420C0
:103A2C00002318461037BD4680BD80B59CB000AF52
:103A3C00F860B9603B601346FB71A5E0BB6FB3F156
:103A4C00FF3F00F0A180FDF7C9F902463B68D31A8D
:103A5C00BA6F9A4202D3BB6F002B3ED1FB681B6836
:103A6C003B653B6D53E8003FFB64FB6C23F4D07368
:103A7C007B66FB681B681A467B6EFB65BA65B96D85
:103A8C00FA6D41E800237B657B6D002BE6D1FB686A
:103A9C001B680833FB63FB6B53E8003FBB63BB6BDA
:103AAC0023F001033B66FB681B6808333A6EBA646B
:103ABC007B64796CBA6C41E800233B643B6C002B53
:103ACC00E5D1FB6820229A67FB682022DA67FB6845
:103ADC00002283F87420032367E0FB681B681B68D3
:103AEC0003F00403002B4FD0FB681B68DB6903F465
:103AFC000063B3F5006F47D1FB681B684FF400629D
:103B0C001A62FB681B68BB62BB6A53E8003F7B62AE
:103B1C007B6A23F4D073FB66FB681B681A46FB6E4A
:103B2C007B633A63396B7A6B41E80023FB62FB6A77
:103B3C00002BE6D1FB681B6808337B617B6953E87B
:103B4C00003F3B613B6923F00103BB66FB681B68CC
:103B5C000833BA6E3A62FB61F9693A6A41E80023AC
:103B6C00BB61BB69002BE5D1FB6820229A67FB681F
:103B7C002022DA67FB682022C3F88020FB68002231
:103B8C0083F87420032310E0FB681B68DA69BB68B8
:103B9C001340BA689A420CBF01230023DBB21A46C9
:103BAC00FB799A423FF44AAF002318467037BD4662
:103BBC0080BD000070B50D4D0D4C641BA41000268B
:103BCC00A64209D10B4D0C4C00F020F8641BA4103C
:103BDC000026A64205D170BD55F8043B9847013626
:103BEC00EEE755F8043B98470136F2E7803C0008B5
:103BFC00803C0008803C0008843C000802440346DA
:103C0C00934200D1704703F8011BF9E7F8B500BFE8
:103C1C00F8BC08BC9E467047F8B500BFF8BC08BCA1
:043C2C009E467047F9
:103C3000000000000000000001020304060708095C
:103C40000000000001020304A0860100400D0300F3
:103C5000801A060000350C0040420F0080841E00D0
:103C600000093D0000127A000024F40000366E01C5
:083C70000048E801006CDC02D1
:083C780084C5FF7F010000007C
:043C8000B101000886
:043C84008D010008A6
:0C3C880000093D001000000001000000D9
:0400000508000CC51E
:00000001FF
